{
  "_format": "hh-sol-artifact-1",
  "contractName": "MyNFT",
  "sourceName": "contracts/MyNFT.sol",
  "abi": [
    {
      "inputs": [],
      "stateMutability": "nonpayable",
      "type": "constructor"
    },
    {
      "anonymous": false,
      "inputs": [
        {
          "indexed": true,
          "internalType": "address",
          "name": "owner",
          "type": "address"
        },
        {
          "indexed": true,
          "internalType": "address",
          "name": "approved",
          "type": "address"
        },
        {
          "indexed": true,
          "internalType": "uint256",
          "name": "tokenId",
          "type": "uint256"
        }
      ],
      "name": "Approval",
      "type": "event"
    },
    {
      "anonymous": false,
      "inputs": [
        {
          "indexed": true,
          "internalType": "address",
          "name": "owner",
          "type": "address"
        },
        {
          "indexed": true,
          "internalType": "address",
          "name": "operator",
          "type": "address"
        },
        {
          "indexed": false,
          "internalType": "bool",
          "name": "approved",
          "type": "bool"
        }
      ],
      "name": "ApprovalForAll",
      "type": "event"
    },
    {
      "anonymous": false,
      "inputs": [
        {
          "indexed": true,
          "internalType": "address",
          "name": "previousOwner",
          "type": "address"
        },
        {
          "indexed": true,
          "internalType": "address",
          "name": "newOwner",
          "type": "address"
        }
      ],
      "name": "OwnershipTransferred",
      "type": "event"
    },
    {
      "anonymous": false,
      "inputs": [
        {
          "indexed": true,
          "internalType": "address",
          "name": "from",
          "type": "address"
        },
        {
          "indexed": true,
          "internalType": "address",
          "name": "to",
          "type": "address"
        },
        {
          "indexed": true,
          "internalType": "uint256",
          "name": "tokenId",
          "type": "uint256"
        }
      ],
      "name": "Transfer",
      "type": "event"
    },
    {
      "inputs": [
        {
          "internalType": "address",
          "name": "to",
          "type": "address"
        },
        {
          "internalType": "uint256",
          "name": "tokenId",
          "type": "uint256"
        }
      ],
      "name": "approve",
      "outputs": [],
      "stateMutability": "nonpayable",
      "type": "function"
    },
    {
      "inputs": [
        {
          "internalType": "address",
          "name": "owner",
          "type": "address"
        }
      ],
      "name": "balanceOf",
      "outputs": [
        {
          "internalType": "uint256",
          "name": "",
          "type": "uint256"
        }
      ],
      "stateMutability": "view",
      "type": "function"
    },
    {
      "inputs": [],
      "name": "baseURI",
      "outputs": [
        {
          "internalType": "string",
          "name": "",
          "type": "string"
        }
      ],
      "stateMutability": "view",
      "type": "function"
    },
    {
      "inputs": [
        {
          "internalType": "uint256",
          "name": "tokenId",
          "type": "uint256"
        }
      ],
      "name": "getApproved",
      "outputs": [
        {
          "internalType": "address",
          "name": "",
          "type": "address"
        }
      ],
      "stateMutability": "view",
      "type": "function"
    },
    {
      "inputs": [
        {
          "internalType": "address",
          "name": "recipient",
          "type": "address"
        }
      ],
      "name": "getTokensByOwner",
      "outputs": [
        {
          "components": [
            {
              "internalType": "uint256",
              "name": "id",
              "type": "uint256"
            },
            {
              "internalType": "string",
              "name": "uri",
              "type": "string"
            }
          ],
          "internalType": "struct MyNFT.Token[]",
          "name": "",
          "type": "tuple[]"
        }
      ],
      "stateMutability": "view",
      "type": "function"
    },
    {
      "inputs": [
        {
          "internalType": "address",
          "name": "owner",
          "type": "address"
        },
        {
          "internalType": "address",
          "name": "operator",
          "type": "address"
        }
      ],
      "name": "isApprovedForAll",
      "outputs": [
        {
          "internalType": "bool",
          "name": "",
          "type": "bool"
        }
      ],
      "stateMutability": "view",
      "type": "function"
    },
    {
      "inputs": [
        {
          "internalType": "address",
          "name": "recipient",
          "type": "address"
        },
        {
          "internalType": "string",
          "name": "tokenURI",
          "type": "string"
        }
      ],
      "name": "mintNFT",
      "outputs": [
        {
          "internalType": "uint256",
          "name": "",
          "type": "uint256"
        }
      ],
      "stateMutability": "nonpayable",
      "type": "function"
    },
    {
      "inputs": [],
      "name": "name",
      "outputs": [
        {
          "internalType": "string",
          "name": "",
          "type": "string"
        }
      ],
      "stateMutability": "view",
      "type": "function"
    },
    {
      "inputs": [],
      "name": "owner",
      "outputs": [
        {
          "internalType": "address",
          "name": "",
          "type": "address"
        }
      ],
      "stateMutability": "view",
      "type": "function"
    },
    {
      "inputs": [
        {
          "internalType": "uint256",
          "name": "tokenId",
          "type": "uint256"
        }
      ],
      "name": "ownerOf",
      "outputs": [
        {
          "internalType": "address",
          "name": "",
          "type": "address"
        }
      ],
      "stateMutability": "view",
      "type": "function"
    },
    {
      "inputs": [],
      "name": "renounceOwnership",
      "outputs": [],
      "stateMutability": "nonpayable",
      "type": "function"
    },
    {
      "inputs": [
        {
          "internalType": "address",
          "name": "from",
          "type": "address"
        },
        {
          "internalType": "address",
          "name": "to",
          "type": "address"
        },
        {
          "internalType": "uint256",
          "name": "tokenId",
          "type": "uint256"
        }
      ],
      "name": "safeTransferFrom",
      "outputs": [],
      "stateMutability": "nonpayable",
      "type": "function"
    },
    {
      "inputs": [
        {
          "internalType": "address",
          "name": "from",
          "type": "address"
        },
        {
          "internalType": "address",
          "name": "to",
          "type": "address"
        },
        {
          "internalType": "uint256",
          "name": "tokenId",
          "type": "uint256"
        },
        {
          "internalType": "bytes",
          "name": "_data",
          "type": "bytes"
        }
      ],
      "name": "safeTransferFrom",
      "outputs": [],
      "stateMutability": "nonpayable",
      "type": "function"
    },
    {
      "inputs": [
        {
          "internalType": "address",
          "name": "operator",
          "type": "address"
        },
        {
          "internalType": "bool",
          "name": "approved",
          "type": "bool"
        }
      ],
      "name": "setApprovalForAll",
      "outputs": [],
      "stateMutability": "nonpayable",
      "type": "function"
    },
    {
      "inputs": [
        {
          "internalType": "bytes4",
          "name": "interfaceId",
          "type": "bytes4"
        }
      ],
      "name": "supportsInterface",
      "outputs": [
        {
          "internalType": "bool",
          "name": "",
          "type": "bool"
        }
      ],
      "stateMutability": "view",
      "type": "function"
    },
    {
      "inputs": [],
      "name": "symbol",
      "outputs": [
        {
          "internalType": "string",
          "name": "",
          "type": "string"
        }
      ],
      "stateMutability": "view",
      "type": "function"
    },
    {
      "inputs": [
        {
          "internalType": "uint256",
          "name": "index",
          "type": "uint256"
        }
      ],
      "name": "tokenByIndex",
      "outputs": [
        {
          "internalType": "uint256",
          "name": "",
          "type": "uint256"
        }
      ],
      "stateMutability": "view",
      "type": "function"
    },
    {
      "inputs": [
        {
          "internalType": "address",
          "name": "owner",
          "type": "address"
        },
        {
          "internalType": "uint256",
          "name": "index",
          "type": "uint256"
        }
      ],
      "name": "tokenOfOwnerByIndex",
      "outputs": [
        {
          "internalType": "uint256",
          "name": "",
          "type": "uint256"
        }
      ],
      "stateMutability": "view",
      "type": "function"
    },
    {
      "inputs": [
        {
          "internalType": "uint256",
          "name": "tokenId",
          "type": "uint256"
        }
      ],
      "name": "tokenURI",
      "outputs": [
        {
          "internalType": "string",
          "name": "",
          "type": "string"
        }
      ],
      "stateMutability": "view",
      "type": "function"
    },
    {
      "inputs": [],
      "name": "totalSupply",
      "outputs": [
        {
          "internalType": "uint256",
          "name": "",
          "type": "uint256"
        }
      ],
      "stateMutability": "view",
      "type": "function"
    },
    {
      "inputs": [
        {
          "internalType": "address",
          "name": "from",
          "type": "address"
        },
        {
          "internalType": "address",
          "name": "to",
          "type": "address"
        },
        {
          "internalType": "uint256",
          "name": "tokenId",
          "type": "uint256"
        }
      ],
      "name": "transferFrom",
      "outputs": [],
      "stateMutability": "nonpayable",
      "type": "function"
    },
    {
      "inputs": [
        {
          "internalType": "address",
          "name": "newOwner",
          "type": "address"
        }
      ],
      "name": "transferOwnership",
      "outputs": [],
      "stateMutability": "nonpayable",
      "type": "function"
    }
  ],
  "bytecode": "0x60806040523480156200001157600080fd5b506040518060400160405280600581526020017f4d794e46540000000000000000000000000000000000000000000000000000008152506040518060400160405280600381526020017f4e46540000000000000000000000000000000000000000000000000000000000815250620000966301ffc9a760e01b620001c960201b60201c565b8160069080519060200190620000ae929190620002a9565b508060079080519060200190620000c7929190620002a9565b50620000e06380ac58cd60e01b620001c960201b60201c565b620000f8635b5e139f60e01b620001c960201b60201c565b6200011063780e9d6360e01b620001c960201b60201c565b5050600062000124620002a160201b60201c565b905080600a60006101000a81548173ffffffffffffffffffffffffffffffffffffffff021916908373ffffffffffffffffffffffffffffffffffffffff1602179055508073ffffffffffffffffffffffffffffffffffffffff16600073ffffffffffffffffffffffffffffffffffffffff167f8be0079c531659141344cd1fd0a4f28419497f9722a3daafe3b4186f6b6457e060405160405180910390a350620003c4565b63ffffffff60e01b817bffffffffffffffffffffffffffffffffffffffffffffffffffffffff1916141562000235576040517f08c379a00000000000000000000000000000000000000000000000000000000081526004016200022c9062000391565b60405180910390fd5b6001600080837bffffffffffffffffffffffffffffffffffffffffffffffffffffffff19167bffffffffffffffffffffffffffffffffffffffffffffffffffffffff1916815260200190815260200160002060006101000a81548160ff02191690831515021790555050565b600033905090565b828054600181600116156101000203166002900490600052602060002090601f016020900481019282601f10620002ec57805160ff19168380011785556200031d565b828001600101855582156200031d579182015b828111156200031c578251825591602001919060010190620002ff565b5b5090506200032c919062000330565b5090565b5b808211156200034b57600081600090555060010162000331565b5090565b60006200035e601c83620003b3565b91507f4552433136353a20696e76616c696420696e74657266616365206964000000006000830152602082019050919050565b60006020820190508181036000830152620003ac816200034f565b9050919050565b600082825260208201905092915050565b61384880620003d46000396000f3fe608060405234801561001057600080fd5b50600436106101425760003560e01c80636c0360eb116100b8578063a22cb4651161007c578063a22cb4651461038b578063b88d4fde146103a7578063c87b56dd146103c3578063e985e9c5146103f3578063eacabe1414610423578063f2fde38b1461045357610142565b80636c0360eb146102f757806370a0823114610315578063715018a6146103455780638da5cb5b1461034f57806395d89b411461036d57610142565b806323b872dd1161010a57806323b872dd146101ff5780632f745c591461021b57806340398d671461024b57806342842e0e1461027b5780634f6ccce7146102975780636352211e146102c757610142565b806301ffc9a71461014757806306fdde0314610177578063081812fc14610195578063095ea7b3146101c557806318160ddd146101e1575b600080fd5b610161600480360381019061015c91906127cb565b61046f565b60405161016e919061328a565b60405180910390f35b61017f6104d6565b60405161018c91906132a5565b60405180910390f35b6101af60048036038101906101aa919061281d565b610578565b6040516101bc9190613201565b60405180910390f35b6101df60048036038101906101da919061278f565b6105fd565b005b6101e9610715565b6040516101f69190613527565b60405180910390f35b61021960048036038101906102149190612635565b610726565b005b6102356004803603810190610230919061278f565b610786565b6040516102429190613527565b60405180910390f35b610265600480360381019061026091906125d0565b6107e1565b6040516102729190613268565b60405180910390f35b61029560048036038101906102909190612635565b61092b565b005b6102b160048036038101906102ac919061281d565b61094b565b6040516102be9190613527565b60405180910390f35b6102e160048036038101906102dc919061281d565b61096e565b6040516102ee9190613201565b60405180910390f35b6102ff6109a5565b60405161030c91906132a5565b60405180910390f35b61032f600480360381019061032a91906125d0565b610a47565b60405161033c9190613527565b60405180910390f35b61034d610b06565b005b610357610c5e565b6040516103649190613201565b60405180910390f35b610375610c88565b60405161038291906132a5565b60405180910390f35b6103a560048036038101906103a091906126ff565b610d2a565b005b6103c160048036038101906103bc9190612684565b610eab565b005b6103dd60048036038101906103d8919061281d565b610f0d565b6040516103ea91906132a5565b60405180910390f35b61040d600480360381019061040891906125f9565b611098565b60405161041a919061328a565b60405180910390f35b61043d6004803603810190610438919061273b565b61112c565b60405161044a9190613527565b60405180910390f35b61046d600480360381019061046891906125d0565b6112a1565b005b6000806000837bffffffffffffffffffffffffffffffffffffffffffffffffffffffff19167bffffffffffffffffffffffffffffffffffffffffffffffffffffffff1916815260200190815260200160002060009054906101000a900460ff169050919050565b606060068054600181600116156101000203166002900480601f01602080910402602001604051908101604052809291908181526020018280546001816001161561010002031660029004801561056e5780601f106105435761010080835404028352916020019161056e565b820191906000526020600020905b81548152906001019060200180831161055157829003601f168201915b5050505050905090565b600061058382611468565b6105c2576040517f08c379a00000000000000000000000000000000000000000000000000000000081526004016105b990613427565b60405180910390fd5b6004600083815260200190815260200160002060009054906101000a900473ffffffffffffffffffffffffffffffffffffffff169050919050565b60006106088261096e565b90508073ffffffffffffffffffffffffffffffffffffffff168373ffffffffffffffffffffffffffffffffffffffff161415610679576040517f08c379a0000000000000000000000000000000000000000000000000000000008152600401610670906134c7565b60405180910390fd5b8073ffffffffffffffffffffffffffffffffffffffff16610698611485565b73ffffffffffffffffffffffffffffffffffffffff1614806106c757506106c6816106c1611485565b611098565b5b610706576040517f08c379a00000000000000000000000000000000000000000000000000000000081526004016106fd906133a7565b60405180910390fd5b610710838361148d565b505050565b60006107216002611546565b905090565b610737610731611485565b8261155b565b610776576040517f08c379a000000000000000000000000000000000000000000000000000000000815260040161076d906134e7565b60405180910390fd5b610781838383611639565b505050565b60006107d982600160008673ffffffffffffffffffffffffffffffffffffffff1673ffffffffffffffffffffffffffffffffffffffff16815260200190815260200160002061185090919063ffffffff16565b905092915050565b6060600c60008373ffffffffffffffffffffffffffffffffffffffff1673ffffffffffffffffffffffffffffffffffffffff168152602001908152602001600020805480602002602001604051908101604052809291908181526020016000905b82821015610920578382906000526020600020906002020160405180604001604052908160008201548152602001600182018054600181600116156101000203166002900480601f0160208091040260200160405190810160405280929190818152602001828054600181600116156101000203166002900480156109085780601f106108dd57610100808354040283529160200191610908565b820191906000526020600020905b8154815290600101906020018083116108eb57829003601f168201915b50505050508152505081526020019060010190610842565b505050509050919050565b61094683838360405180602001604052806000815250610eab565b505050565b60008061096283600261186a90919063ffffffff16565b50905080915050919050565b600061099e826040518060600160405280602981526020016137ea6029913960026118969092919063ffffffff16565b9050919050565b606060098054600181600116156101000203166002900480601f016020809104026020016040519081016040528092919081815260200182805460018160011615610100020316600290048015610a3d5780601f10610a1257610100808354040283529160200191610a3d565b820191906000526020600020905b815481529060010190602001808311610a2057829003601f168201915b5050505050905090565b60008073ffffffffffffffffffffffffffffffffffffffff168273ffffffffffffffffffffffffffffffffffffffff161415610ab8576040517f08c379a0000000000000000000000000000000000000000000000000000000008152600401610aaf906133c7565b60405180910390fd5b610aff600160008473ffffffffffffffffffffffffffffffffffffffff1673ffffffffffffffffffffffffffffffffffffffff1681526020019081526020016000206118b5565b9050919050565b610b0e611485565b73ffffffffffffffffffffffffffffffffffffffff16600a60009054906101000a900473ffffffffffffffffffffffffffffffffffffffff1673ffffffffffffffffffffffffffffffffffffffff1614610b9d576040517f08c379a0000000000000000000000000000000000000000000000000000000008152600401610b9490613467565b60405180910390fd5b600073ffffffffffffffffffffffffffffffffffffffff16600a60009054906101000a900473ffffffffffffffffffffffffffffffffffffffff1673ffffffffffffffffffffffffffffffffffffffff167f8be0079c531659141344cd1fd0a4f28419497f9722a3daafe3b4186f6b6457e060405160405180910390a36000600a60006101000a81548173ffffffffffffffffffffffffffffffffffffffff021916908373ffffffffffffffffffffffffffffffffffffffff160217905550565b6000600a60009054906101000a900473ffffffffffffffffffffffffffffffffffffffff16905090565b606060078054600181600116156101000203166002900480601f016020809104026020016040519081016040528092919081815260200182805460018160011615610100020316600290048015610d205780601f10610cf557610100808354040283529160200191610d20565b820191906000526020600020905b815481529060010190602001808311610d0357829003601f168201915b5050505050905090565b610d32611485565b73ffffffffffffffffffffffffffffffffffffffff168273ffffffffffffffffffffffffffffffffffffffff161415610da0576040517f08c379a0000000000000000000000000000000000000000000000000000000008152600401610d9790613367565b60405180910390fd5b8060056000610dad611485565b73ffffffffffffffffffffffffffffffffffffffff1673ffffffffffffffffffffffffffffffffffffffff16815260200190815260200160002060008473ffffffffffffffffffffffffffffffffffffffff1673ffffffffffffffffffffffffffffffffffffffff16815260200190815260200160002060006101000a81548160ff0219169083151502179055508173ffffffffffffffffffffffffffffffffffffffff16610e5a611485565b73ffffffffffffffffffffffffffffffffffffffff167f17307eab39ab6107e8899845ad3d59bd9653f200f220920489ca2b5937696c3183604051610e9f919061328a565b60405180910390a35050565b610ebc610eb6611485565b8361155b565b610efb576040517f08c379a0000000000000000000000000000000000000000000000000000000008152600401610ef2906134e7565b60405180910390fd5b610f07848484846118ca565b50505050565b6060610f1882611468565b610f57576040517f08c379a0000000000000000000000000000000000000000000000000000000008152600401610f4e906134a7565b60405180910390fd5b6060600860008481526020019081526020016000208054600181600116156101000203166002900480601f0160208091040260200160405190810160405280929190818152602001828054600181600116156101000203166002900480156110005780601f10610fd557610100808354040283529160200191611000565b820191906000526020600020905b815481529060010190602001808311610fe357829003601f168201915b5050505050905060006009805460018160011615610100020316600290049050141561102f5780915050611093565b6000815111156110645760098160405160200161104d9291906131dd565b604051602081830303815290604052915050611093565b600961106f84611926565b6040516020016110809291906131dd565b6040516020818303038152906040529150505b919050565b6000600560008473ffffffffffffffffffffffffffffffffffffffff1673ffffffffffffffffffffffffffffffffffffffff16815260200190815260200160002060008373ffffffffffffffffffffffffffffffffffffffff1673ffffffffffffffffffffffffffffffffffffffff16815260200190815260200160002060009054906101000a900460ff16905092915050565b6000611136611485565b73ffffffffffffffffffffffffffffffffffffffff16600a60009054906101000a900473ffffffffffffffffffffffffffffffffffffffff1673ffffffffffffffffffffffffffffffffffffffff16146111c5576040517f08c379a00000000000000000000000000000000000000000000000000000000081526004016111bc90613467565b60405180910390fd5b6111cf600b611a6d565b60006111db600b611a83565b90506111e78482611a91565b6111f18184611c1f565b600c60008573ffffffffffffffffffffffffffffffffffffffff1673ffffffffffffffffffffffffffffffffffffffff1681526020019081526020016000206040518060400160405280838152602001858152509080600181540180825580915050600190039060005260206000209060020201600090919091909150600082015181600001556020820151816001019080519060200190611294929190612422565b5050508091505092915050565b6112a9611485565b73ffffffffffffffffffffffffffffffffffffffff16600a60009054906101000a900473ffffffffffffffffffffffffffffffffffffffff1673ffffffffffffffffffffffffffffffffffffffff1614611338576040517f08c379a000000000000000000000000000000000000000000000000000000000815260040161132f90613467565b60405180910390fd5b600073ffffffffffffffffffffffffffffffffffffffff168173ffffffffffffffffffffffffffffffffffffffff1614156113a8576040517f08c379a000000000000000000000000000000000000000000000000000000000815260040161139f90613307565b60405180910390fd5b8073ffffffffffffffffffffffffffffffffffffffff16600a60009054906101000a900473ffffffffffffffffffffffffffffffffffffffff1673ffffffffffffffffffffffffffffffffffffffff167f8be0079c531659141344cd1fd0a4f28419497f9722a3daafe3b4186f6b6457e060405160405180910390a380600a60006101000a81548173ffffffffffffffffffffffffffffffffffffffff021916908373ffffffffffffffffffffffffffffffffffffffff16021790555050565b600061147e826002611c9390919063ffffffff16565b9050919050565b600033905090565b816004600083815260200190815260200160002060006101000a81548173ffffffffffffffffffffffffffffffffffffffff021916908373ffffffffffffffffffffffffffffffffffffffff160217905550808273ffffffffffffffffffffffffffffffffffffffff166115008361096e565b73ffffffffffffffffffffffffffffffffffffffff167f8c5be1e5ebec7d5bd14f71427d1e84f3dd0314c0f7b2291e5b200ac8c7c3b92560405160405180910390a45050565b600061155482600001611cad565b9050919050565b600061156682611468565b6115a5576040517f08c379a000000000000000000000000000000000000000000000000000000000815260040161159c90613387565b60405180910390fd5b60006115b08361096e565b90508073ffffffffffffffffffffffffffffffffffffffff168473ffffffffffffffffffffffffffffffffffffffff16148061161f57508373ffffffffffffffffffffffffffffffffffffffff1661160784610578565b73ffffffffffffffffffffffffffffffffffffffff16145b80611630575061162f8185611098565b5b91505092915050565b8273ffffffffffffffffffffffffffffffffffffffff166116598261096e565b73ffffffffffffffffffffffffffffffffffffffff16146116af576040517f08c379a00000000000000000000000000000000000000000000000000000000081526004016116a690613487565b60405180910390fd5b600073ffffffffffffffffffffffffffffffffffffffff168273ffffffffffffffffffffffffffffffffffffffff16141561171f576040517f08c379a000000000000000000000000000000000000000000000000000000000815260040161171690613347565b60405180910390fd5b61172a838383611cbe565b61173560008261148d565b61178681600160008673ffffffffffffffffffffffffffffffffffffffff1673ffffffffffffffffffffffffffffffffffffffff168152602001908152602001600020611cc390919063ffffffff16565b506117d881600160008573ffffffffffffffffffffffffffffffffffffffff1673ffffffffffffffffffffffffffffffffffffffff168152602001908152602001600020611cdd90919063ffffffff16565b506117ef81836002611cf79092919063ffffffff16565b50808273ffffffffffffffffffffffffffffffffffffffff168473ffffffffffffffffffffffffffffffffffffffff167fddf252ad1be2c89b69c2b068fc378daa952ba7f163c4a11628f55a4df523b3ef60405160405180910390a4505050565b600061185f8360000183611d2c565b60001c905092915050565b60008060008061187d8660000186611d99565b915091508160001c8160001c9350935050509250929050565b60006118a9846000018460001b84611e1c565b60001c90509392505050565b60006118c382600001611ead565b9050919050565b6118d5848484611639565b6118e184848484611ebe565b611920576040517f08c379a0000000000000000000000000000000000000000000000000000000008152600401611917906132e7565b60405180910390fd5b50505050565b6060600082141561196e576040518060400160405280600181526020017f30000000000000000000000000000000000000000000000000000000000000008152509050611a68565b600082905060005b60008214611998578080600101915050600a828161199057fe5b049150611976565b60608167ffffffffffffffff811180156119b157600080fd5b506040519080825280601f01601f1916602001820160405280156119e45781602001600182028036833780820191505090505b50905060006001830390508593505b60008414611a6057600a8481611a0557fe5b0660300160f81b82828060019003935081518110611a1f57fe5b60200101907effffffffffffffffffffffffffffffffffffffffffffffffffffffffffffff1916908160001a905350600a8481611a5857fe5b0493506119f3565b819450505050505b919050565b6001816000016000828254019250508190555050565b600081600001549050919050565b600073ffffffffffffffffffffffffffffffffffffffff168273ffffffffffffffffffffffffffffffffffffffff161415611b01576040517f08c379a0000000000000000000000000000000000000000000000000000000008152600401611af890613407565b60405180910390fd5b611b0a81611468565b15611b4a576040517f08c379a0000000000000000000000000000000000000000000000000000000008152600401611b4190613327565b60405180910390fd5b611b5660008383611cbe565b611ba781600160008573ffffffffffffffffffffffffffffffffffffffff1673ffffffffffffffffffffffffffffffffffffffff168152602001908152602001600020611cdd90919063ffffffff16565b50611bbe81836002611cf79092919063ffffffff16565b50808273ffffffffffffffffffffffffffffffffffffffff16600073ffffffffffffffffffffffffffffffffffffffff167fddf252ad1be2c89b69c2b068fc378daa952ba7f163c4a11628f55a4df523b3ef60405160405180910390a45050565b611c2882611468565b611c67576040517f08c379a0000000000000000000000000000000000000000000000000000000008152600401611c5e90613447565b60405180910390fd5b80600860008481526020019081526020016000209080519060200190611c8e929190612422565b505050565b6000611ca5836000018360001b612022565b905092915050565b600081600001805490509050919050565b505050565b6000611cd5836000018360001b612045565b905092915050565b6000611cef836000018360001b61212d565b905092915050565b6000611d23846000018460001b8473ffffffffffffffffffffffffffffffffffffffff1660001b61219d565b90509392505050565b600081836000018054905011611d77576040517f08c379a0000000000000000000000000000000000000000000000000000000008152600401611d6e906132c7565b60405180910390fd5b826000018281548110611d8657fe5b9060005260206000200154905092915050565b60008082846000018054905011611de5576040517f08c379a0000000000000000000000000000000000000000000000000000000008152600401611ddc906133e7565b60405180910390fd5b6000846000018481548110611df657fe5b906000526020600020906002020190508060000154816001015492509250509250929050565b60008084600101600085815260200190815260200160002054905060008114158390611e7e576040517f08c379a0000000000000000000000000000000000000000000000000000000008152600401611e7591906132a5565b60405180910390fd5b50846000016001820381548110611e9157fe5b9060005260206000209060020201600101549150509392505050565b600081600001805490509050919050565b6000611edf8473ffffffffffffffffffffffffffffffffffffffff16612279565b611eec576001905061201a565b6060611fb363150b7a0260e01b611f01611485565b888787604051602401611f17949392919061321c565b604051602081830303815290604052907bffffffffffffffffffffffffffffffffffffffffffffffffffffffff19166020820180517bffffffffffffffffffffffffffffffffffffffffffffffffffffffff83818316178352505050506040518060600160405280603281526020016137b8603291398773ffffffffffffffffffffffffffffffffffffffff166122c49092919063ffffffff16565b9050600081806020019051810190611fcb91906127f4565b905063150b7a0260e01b7bffffffffffffffffffffffffffffffffffffffffffffffffffffffff1916817bffffffffffffffffffffffffffffffffffffffffffffffffffffffff191614925050505b949350505050565b600080836001016000848152602001908152602001600020541415905092915050565b60008083600101600084815260200190815260200160002054905060008114612121576000600182039050600060018660000180549050039050600086600001828154811061209057fe5b90600052602060002001549050808760000184815481106120ad57fe5b90600052602060002001819055506001830187600101600083815260200190815260200160002081905550866000018054806120e557fe5b60019003818190600052602060002001600090559055866001016000878152602001908152602001600020600090556001945050505050612127565b60009150505b92915050565b600061213983836122dc565b612192578260000182908060018154018082558091505060019003906000526020600020016000909190919091505582600001805490508360010160008481526020019081526020016000208190555060019050612197565b600090505b92915050565b600080846001016000858152602001908152602001600020549050600081141561224457846000016040518060400160405280868152602001858152509080600181540180825580915050600190039060005260206000209060020201600090919091909150600082015181600001556020820151816001015550508460000180549050856001016000868152602001908152602001600020819055506001915050612272565b8285600001600183038154811061225757fe5b90600052602060002090600202016001018190555060009150505b9392505050565b60008060007fc5d2460186f7233c927e7db2dcc703c0e500b653ca82273b7bfad8045d85a47060001b9050833f91508082141580156122bb57506000801b8214155b92505050919050565b60606122d384846000856122ff565b90509392505050565b600080836001016000848152602001908152602001600020541415905092915050565b606061230a85612279565b612349576040517f08c379a000000000000000000000000000000000000000000000000000000000815260040161234090613507565b60405180910390fd5b600060608673ffffffffffffffffffffffffffffffffffffffff16858760405161237391906131c6565b60006040518083038185875af1925050503d80600081146123b0576040519150601f19603f3d011682016040523d82523d6000602084013e6123b5565b606091505b509150915081156123ca57809250505061241a565b6000815111156123dd5780518082602001fd5b836040517f08c379a000000000000000000000000000000000000000000000000000000000815260040161241191906132a5565b60405180910390fd5b949350505050565b828054600181600116156101000203166002900490600052602060002090601f016020900481019282601f1061246357805160ff1916838001178555612491565b82800160010185558215612491579182015b82811115612490578251825591602001919060010190612475565b5b50905061249e91906124a2565b5090565b5b808211156124bb5760008160009055506001016124a3565b5090565b6000813590506124ce8161375b565b92915050565b6000813590506124e381613772565b92915050565b6000813590506124f881613789565b92915050565b60008151905061250d81613789565b92915050565b600082601f83011261252457600080fd5b813561253761253282613573565b613542565b9150808252602083016020830185838301111561255357600080fd5b61255e838284613706565b50505092915050565b600082601f83011261257857600080fd5b813561258b612586826135a3565b613542565b915080825260208301602083018583830111156125a757600080fd5b6125b2838284613706565b50505092915050565b6000813590506125ca816137a0565b92915050565b6000602082840312156125e257600080fd5b60006125f0848285016124bf565b91505092915050565b6000806040838503121561260c57600080fd5b600061261a858286016124bf565b925050602061262b858286016124bf565b9150509250929050565b60008060006060848603121561264a57600080fd5b6000612658868287016124bf565b9350506020612669868287016124bf565b925050604061267a868287016125bb565b9150509250925092565b6000806000806080858703121561269a57600080fd5b60006126a8878288016124bf565b94505060206126b9878288016124bf565b93505060406126ca878288016125bb565b925050606085013567ffffffffffffffff8111156126e757600080fd5b6126f387828801612513565b91505092959194509250565b6000806040838503121561271257600080fd5b6000612720858286016124bf565b9250506020612731858286016124d4565b9150509250929050565b6000806040838503121561274e57600080fd5b600061275c858286016124bf565b925050602083013567ffffffffffffffff81111561277957600080fd5b61278585828601612567565b9150509250929050565b600080604083850312156127a257600080fd5b60006127b0858286016124bf565b92505060206127c1858286016125bb565b9150509250929050565b6000602082840312156127dd57600080fd5b60006127eb848285016124e9565b91505092915050565b60006020828403121561280657600080fd5b6000612814848285016124fe565b91505092915050565b60006020828403121561282f57600080fd5b600061283d848285016125bb565b91505092915050565b6000612852838361316b565b905092915050565b61286381613692565b82525050565b61287281613680565b82525050565b6000612883826135f8565b61288d8185613626565b93508360208202850161289f856135d3565b8060005b858110156128db57848403895281516128bc8582612846565b94506128c783613619565b925060208a019950506001810190506128a3565b50829750879550505050505092915050565b6128f6816136a4565b82525050565b600061290782613603565b6129118185613637565b9350612921818560208601613715565b61292a8161374a565b840191505092915050565b600061294082613603565b61294a8185613648565b935061295a818560208601613715565b80840191505092915050565b60006129718261360e565b61297b8185613653565b935061298b818560208601613715565b6129948161374a565b840191505092915050565b60006129aa8261360e565b6129b48185613664565b93506129c4818560208601613715565b6129cd8161374a565b840191505092915050565b60006129e38261360e565b6129ed8185613675565b93506129fd818560208601613715565b80840191505092915050565b600081546001811660008114612a265760018114612a4b57612a8f565b607f6002830416612a378187613675565b955060ff1983168652808601935050612a8f565b60028204612a598187613675565b9550612a64856135e3565b60005b82811015612a8657815481890152600182019150602081019050612a67565b82880195505050505b505092915050565b6000612aa4602283613664565b91507f456e756d657261626c655365743a20696e646578206f7574206f6620626f756e60008301527f64730000000000000000000000000000000000000000000000000000000000006020830152604082019050919050565b6000612b0a603283613664565b91507f4552433732313a207472616e7366657220746f206e6f6e20455243373231526560008301527f63656976657220696d706c656d656e74657200000000000000000000000000006020830152604082019050919050565b6000612b70602683613664565b91507f4f776e61626c653a206e6577206f776e657220697320746865207a65726f206160008301527f64647265737300000000000000000000000000000000000000000000000000006020830152604082019050919050565b6000612bd6601c83613664565b91507f4552433732313a20746f6b656e20616c7265616479206d696e746564000000006000830152602082019050919050565b6000612c16602483613664565b91507f4552433732313a207472616e7366657220746f20746865207a65726f2061646460008301527f72657373000000000000000000000000000000000000000000000000000000006020830152604082019050919050565b6000612c7c601983613664565b91507f4552433732313a20617070726f766520746f2063616c6c6572000000000000006000830152602082019050919050565b6000612cbc602c83613664565b91507f4552433732313a206f70657261746f7220717565727920666f72206e6f6e657860008301527f697374656e7420746f6b656e00000000000000000000000000000000000000006020830152604082019050919050565b6000612d22603883613664565b91507f4552433732313a20617070726f76652063616c6c6572206973206e6f74206f7760008301527f6e6572206e6f7220617070726f76656420666f7220616c6c00000000000000006020830152604082019050919050565b6000612d88602a83613664565b91507f4552433732313a2062616c616e636520717565727920666f7220746865207a6560008301527f726f2061646472657373000000000000000000000000000000000000000000006020830152604082019050919050565b6000612dee602283613664565b91507f456e756d657261626c654d61703a20696e646578206f7574206f6620626f756e60008301527f64730000000000000000000000000000000000000000000000000000000000006020830152604082019050919050565b6000612e54602083613664565b91507f4552433732313a206d696e7420746f20746865207a65726f20616464726573736000830152602082019050919050565b6000612e94602c83613664565b91507f4552433732313a20617070726f76656420717565727920666f72206e6f6e657860008301527f697374656e7420746f6b656e00000000000000000000000000000000000000006020830152604082019050919050565b6000612efa602c83613664565b91507f4552433732314d657461646174613a2055524920736574206f66206e6f6e657860008301527f697374656e7420746f6b656e00000000000000000000000000000000000000006020830152604082019050919050565b6000612f60602083613664565b91507f4f776e61626c653a2063616c6c6572206973206e6f7420746865206f776e65726000830152602082019050919050565b6000612fa0602983613664565b91507f4552433732313a207472616e73666572206f6620746f6b656e2074686174206960008301527f73206e6f74206f776e00000000000000000000000000000000000000000000006020830152604082019050919050565b6000613006602f83613664565b91507f4552433732314d657461646174613a2055524920717565727920666f72206e6f60008301527f6e6578697374656e7420746f6b656e00000000000000000000000000000000006020830152604082019050919050565b600061306c602183613664565b91507f4552433732313a20617070726f76616c20746f2063757272656e74206f776e6560008301527f72000000000000000000000000000000000000000000000000000000000000006020830152604082019050919050565b60006130d2603183613664565b91507f4552433732313a207472616e736665722063616c6c6572206973206e6f74206f60008301527f776e6572206e6f7220617070726f7665640000000000000000000000000000006020830152604082019050919050565b6000613138601d83613664565b91507f416464726573733a2063616c6c20746f206e6f6e2d636f6e74726163740000006000830152602082019050919050565b600060408301600083015161318360008601826131a8565b506020830151848203602086015261319b8282612966565b9150508091505092915050565b6131b1816136fc565b82525050565b6131c0816136fc565b82525050565b60006131d28284612935565b915081905092915050565b60006131e98285612a09565b91506131f582846129d8565b91508190509392505050565b60006020820190506132166000830184612869565b92915050565b6000608082019050613231600083018761285a565b61323e6020830186612869565b61324b60408301856131b7565b818103606083015261325d81846128fc565b905095945050505050565b600060208201905081810360008301526132828184612878565b905092915050565b600060208201905061329f60008301846128ed565b92915050565b600060208201905081810360008301526132bf818461299f565b905092915050565b600060208201905081810360008301526132e081612a97565b9050919050565b6000602082019050818103600083015261330081612afd565b9050919050565b6000602082019050818103600083015261332081612b63565b9050919050565b6000602082019050818103600083015261334081612bc9565b9050919050565b6000602082019050818103600083015261336081612c09565b9050919050565b6000602082019050818103600083015261338081612c6f565b9050919050565b600060208201905081810360008301526133a081612caf565b9050919050565b600060208201905081810360008301526133c081612d15565b9050919050565b600060208201905081810360008301526133e081612d7b565b9050919050565b6000602082019050818103600083015261340081612de1565b9050919050565b6000602082019050818103600083015261342081612e47565b9050919050565b6000602082019050818103600083015261344081612e87565b9050919050565b6000602082019050818103600083015261346081612eed565b9050919050565b6000602082019050818103600083015261348081612f53565b9050919050565b600060208201905081810360008301526134a081612f93565b9050919050565b600060208201905081810360008301526134c081612ff9565b9050919050565b600060208201905081810360008301526134e08161305f565b9050919050565b60006020820190508181036000830152613500816130c5565b9050919050565b600060208201905081810360008301526135208161312b565b9050919050565b600060208201905061353c60008301846131b7565b92915050565b6000604051905081810181811067ffffffffffffffff8211171561356957613568613748565b5b8060405250919050565b600067ffffffffffffffff82111561358e5761358d613748565b5b601f19601f8301169050602081019050919050565b600067ffffffffffffffff8211156135be576135bd613748565b5b601f19601f8301169050602081019050919050565b6000819050602082019050919050565b60008190508160005260206000209050919050565b600081519050919050565b600081519050919050565b600081519050919050565b6000602082019050919050565b600082825260208201905092915050565b600082825260208201905092915050565b600081905092915050565b600082825260208201905092915050565b600082825260208201905092915050565b600081905092915050565b600061368b826136dc565b9050919050565b600061369d826136dc565b9050919050565b60008115159050919050565b60007fffffffff0000000000000000000000000000000000000000000000000000000082169050919050565b600073ffffffffffffffffffffffffffffffffffffffff82169050919050565b6000819050919050565b82818337600083830152505050565b60005b83811015613733578082015181840152602081019050613718565b83811115613742576000848401525b50505050565bfe5b6000601f19601f8301169050919050565b61376481613680565b811461376f57600080fd5b50565b61377b816136a4565b811461378657600080fd5b50565b613792816136b0565b811461379d57600080fd5b50565b6137a9816136fc565b81146137b457600080fd5b5056fe4552433732313a207472616e7366657220746f206e6f6e20455243373231526563656976657220696d706c656d656e7465724552433732313a206f776e657220717565727920666f72206e6f6e6578697374656e7420746f6b656ea2646970667358221220bad595ceb5988102c868609771c4618ae24860643852bc953108071951d6c14e64736f6c63430007030033",
  "linkReferences": {},
  "deployedLinkReferences": {}
}